:05001600E4FB0205639C
:030B9F001204A796
:010BA2002230
:100AB1008F348B367B011205637B01AD36AF341267
:0B0AC10005637B01AD37AF3402056315
:100ACC008F368B387B01120605E4FBAD38AF36123E
:0B0ADC0006057B01AD39AF36020605B0
:100AE7008F368B38E4FB1206057B01AD38AF361223
:0B0AF70006057B01AD39AF3602060595
:100B02008F278B29E4FB120605E4FBAD29AF2712E0
:0B0B12000605E4FBAD2AAF2702060534
:100A2700E4FDFCD3ED9FEE6480F8EC6480985015EC
:100A3700E4FBFA0BBB00010AEB64064A70F50DBD37
:050A470000010C80DE3F
:010A4C002287
:10056300EF24CF60311460521460732403600302DC
:100573000604BB010E7401A805088002C333D8FC2E
:1005830042A4227401A805088002C333D8FCFFF4F7
:1005930052A4EF428022BB010E7401A80508800219
:1005A300C333D8FC42A5227401A805088002C333D3
:1005B300D8FCFFF452A5EF429022BB010E7401A8B0
:1005C30005088002C333D8FC42A6227401A805089B
:1005D3008002C333D8FCFFF452A6EF42A022BB0132
:1005E3000E7401A805088002C333D8FC42A7227405
:1005F30001A805088002C333D8FCFFF452A7EF42D9
:02060300B02223
:10060500EF24CF602D14604A146067240360030251
:100615000698BB010E7401A805088002C333D8FCF7
:100625004280227401A805088002C333D8FCF45225
:100635008022BB010E7401A805088002C333D8FCD3
:100645004290227401A805088002C333D8FCF452F5
:100655009022BB010E7401A805088002C333D8FCA3
:1006650042A0227401A805088002C333D8FCF452C5
:10067500A022BB010E7401A805088002C333D8FC73
:1006850042B022AF057401A807088002C333D8FC25
:04069500F452B02249
:1004A700E4FEEF24CF603914605F1470030205394E
:1004B7002403600302056074017E00A80508800517
:1004C700C333CE33CED8F9FFAC80ECFBE4FEEF5B51
:1004D700A805088006CEA2E713CE13D8F8FE8079C8
:1004E70074017E00A805088005C333CE33CED8F942
:1004F700FFAC90ECFBE4FEEF5BA805088006CEA2FC
:10050700E713CE13D8F8FE805074017E00A80508C3
:100517008005C333CE33CED8F9FFACA0ECFBE4FEA5
:10052700EF5BA805088006CEA2E713CE13D8F8FE26
:10053700802774017E00A805088005C333CE33CE1B
:10054700D8F9FFACB0ECFBE4FEEF5BA8050880062A
:0B055700CEA2E713CE13D8F8FEAF06CB
:010562002276
:1007E700EF24CF601814602314602E24037039742B
:1007F70001A805088002C333D8FC6280227401A8CF
:1008070005088002C333D8FC6290227401A805084A
:100817008002C333D8FC62A022AF057401A8070881
:090827008002C333D8FC62B02248
:10087900EF24CF601814602314602E24037037BD51
:10088900010475A4FF22E4F5A47580FF22BD0104CB
:1008990075A5FF22E4F5A57590FF22BD010475A693
:1008A900FF22E4F5A675A0FF22BD010475A7FF226A
:0708B900E4F5A775B0FF2272
:100B1D00EF24CF600D14600D14600D2403700B8D48
:0B0B2D0080228D90228DA0228DB0222E
:100A7000E4FEEF24CF600E14600F146010240370A6
:100A80000EAE80800AAE908006AEA08002AEB0AFFF
:010A9000065F
:010A91002242
:050B8B007B010205637F
:050B90007B01020605D7
:050B9500E4FB0206056F
:030010000207E7FD
:040BA3001204A7226F
:0A0006003F065B4F666D7D077F6FBC
:050B9A007D0102087955
:040A4D008F348D3520
:100A510078367C007D007BFF7A0079067E007F0A74
:0F0A610012026A74362535F8E6FDAF34020B1D1C
:1009F600EF4E7013E58954F04401F589D2A9D28CE3
:100A0600D2AFE4F58AF58CEF64014E7013E5895494
:100A16000F4410F589D2ABD28ED2AFE4F58BF58DAB
:010A260022AD
:100A9200EF4E700AC2A9C28CC2AFF58AF58CEF6420
:0F0AA200014E700AC2ABC28EC2AFF58BF58D222A
:080830008F2A8E298D288C27E8
:10083800E4F52EF52DF52CF52BE47F8D7E18FDFCC7
:10084800AB2AAA29A928A827120290AB2EAA2DA95B
:100858002CA82BC31202DF5017E52E2401F52EE435
:10086800352DF52DE4352CF52CE4352BF52B80C9E9
:01087800225D
:10098500051E00000000000513000000000005180A
:100995000000000000011000010D00011200010E11
:1009A50000040900000000042300000002011D01ED
:0909B500011100010800010F000E
:10001E00120B7C120B847F32120B9AE4FD7F32128C
:10002E000A4D7537077B067D057F33120AB1E4FD55
:10003E007F301200167D017F301200167D027F3058
:10004E001200167D037F301200167D047F301200E1
:10005E00167D057F301200167590FFE4FD7F33127A
:10006E000B8B7D017F33120B8B7D047F33120B8B39
:10007E00E4FD7F33120B957D017F33120B957D04CA
:10008E007F33120B95E4FD7F30120B9FEF600A75E4
:10009E0018017FC87E00120A277D017F30120B9F48
:1000AE00EF600A7519017FC87E00120A277D027F54
:1000BE0030120B9FEF600A751A017FC87E00120A7C
:1000CE00277D037F30120B9FEF600A751B017FC8DF
:1000DE007E00120A277D047F30120B9FEF600A7597
:1000EE001C017FC87E00120A27E4FD7F31120B9F90
:1000FE00EF70097517017FC8FE120A277D017F3147
:10010E00120B9FEF70097521017FC8FE120A277D21
:10011E00027F31120B9FEF70097516017FC8FE1218
:10012E000A277D037F31120B9FEF70097520017F27
:10013E00C8FE120A277D047F31120B9FEF700975DE
:10014E0015017FC8FE120A277D057F31120B9FEF26
:10015E007009751F017FC8FE120A277D067F3112B6
:10016E000B9FEF70097514017FC8FE120A277D07D9
:10017E007F31120B9FEF700EE50D6003751E017F30
:0C018E00C87E00120A2712078B020093A3
:080B7C00D288D28A75A88522F7
:1008C000E50D04FFE4F536C3EF6480948550207491
:1008D000182FF8E6B40102800E741E2FF8E6B4015A
:1008E0000B74182FF8760175360180030F80D8E558
:1008F00036B40109E4FD7F33120B908007E4FD7FDD
:0609000033120B95AF3627
:0109060022CE
:10094800E50D04FFE4F536C3EF6480948550167412
:10095800132FF8E6B4010B74182FF87601753601D9
:1009680080030F80E2E536B40109E4FD7F33120B02
:0C097800908007E4FD7F33120B95AF3632
:010984002250
:10090700AF0DE4F536D3EF64809480402074172F41
:10091700F8E6B40102800E74122FF8E6B4010B74E6
:10092700172FF8760175360180031F80D8E5367DCD
:10093700047F33B40105120B908003120B95AF3679
:01094700228D
:1009BF00AF0DE4F536C3EF648094804016741E2F9C
:1009CF00F8E6B4010B74182FF87601753601800321
:1009DF001F80E2E5367D047F33B40105120B908052
:0609EF0003120B95AF3668
:0109F50022DF
:10078B00E4F534F5351208C08F341209078F351292
:10079B0009488F121209BF8F0EE50F703E1208C069
:1007AB008F341209078F35E51DB40114E534B401FC
:1007BB00028025E53564017022751101F51D800A53
:1007CB00E511B40116E535B40103020B52E534B45F
:0B07DB000109751D01E4F511120B3837
:0107E60022F0
:100B38007539077B067D057F33120ACC7F017E005D
:0A0B48001209F6750801750F01226D
:100B52007539077B067D057F33120AE77F017E0028
:0A0B62001209F6750801750F012253
:100B6C00752A077B067D057F33120B02E4F50F22F5
:03001B000202F0EE
:1002F000C0E0C0F0C083C082C0D075D000C000C0D4
:1003000001C002C003C004C005C006C007E50C243C
:1003100001F50CE4350BF50BE4350AF50AE4350973
:10032000F509E47F0FFEFDFCAB26AA25A924A8232E
:10033000120290AB0CAA0BA90AA809C31202DF7023
:100340007C7F01FE120A92750C00750B00750A0085
:10035000750900750F00120B6CE51DB40104050D45
:100360008007E511B40102150DAD0D7F32120A4D63
:100370007418250DF8E6640170437D017F33120B7C
:10038000907F017E007D007C001208307D017F336C
:10039000120B957418250DF87600E51DB4010B7449
:1003A0001E250DF876007413800EE511B4010E744D
:1003B00013250DF87600741E250DF87600D007D0B1
:1003C00006D005D004D003D002D001D000D0D0D0C8
:0803D00082D083D0F0D0E032AE
:03000300020725CC
:10072500C0E0C0F0C083C082C0D075D000C000C09A
:0D07350001C002C003C004C005C006C0071B
:10074200753300753300E533650D600FAD337F30CF
:10075200120B9F74182533F8E64FF60533E533C3C1
:0E076200940540E27D057F30120B9FEF4210A0
:10077000D007D006D005D004D003D002D001D000DD
:0B078000D0D0D082D083D0F0D0E03287
:070B8400D2AFD2AAD28A22EF
:030013000203D80D
:1003D800C0E0C0F0C083C082C0D075D000C000C0EB
:0D03E80001C002C003C004C005C006C0076C
:1003F5007D077F32120010E4FDEDD39408503C7464
:10040500017E00A805088005C333CE33CED8F9FF99
:10041500AC90ECFBE4FEEF5BA805088006CEA2E7F6
:1004250013CE13D8F84E70047F0180027F00EDC310
:1004350013241EF8E64FF60D0D80BE7D01EDD39415
:1004450008504474017E00A805088005C333CE33E7
:10045500CED8F9FFAC90ECFBE4FEEF5BA805088075
:1004650006CEA2E713CE13D8F84E70047C018002A5
:100475007C00ED24FFFFE434FFC313EF132418F8C9
:07048500E64CF60D0D80B6F8
:10048C00D007D006D005D004D003D002D001D000C4
:0B049C00D0D0D082D083D0F0D0E0326E
:030000000206995C
:0C069900787FE4F6D8FD75813F0206E092
:10019A00E709F608DFFA8046E709F208DFFA803E47
:1001AA0088828C83E709F0A3DFFA8032E309F60834
:1001BA00DFFA8078E309F208DFFA807088828C839C
:1001CA00E309F0A3DFFA806489828A83E0A3F60850
:1001DA00DFFA805889828A83E0A3F208DFFA804C2A
:1001EA0080D280FA80C680D4806980F28033801001
:1001FA0080A680EA809A80A880DA80E280CA80336A
:10020A0089828A83ECFAE493A3C8C582C8CCC583E1
:10021A00CCF0A3C8C582C8CCC583CCDFE9DEE780B1
:10022A000D89828A83E493A3F608DFF9ECFAA9F030
:10023A00EDFB2289828A83ECFAE0A3C8C582C8CC86
:10024A00C583CCF0A3C8C582C8CCC583CCDFEADE9F
:10025A00E880DB89828A83E493A3F208DFF980CC01
:10026A0088F0EF60010E4E60C388F0ED2402B404FA
:10027A000050B9F582EB2402B4040050AF232345A1
:06028A0082239001EA73DB
:10029000E88FF0A4CC8BF0A42CFCE98EF0A42CFC0D
:1002A0008AF0EDA42CFCEA8EF0A4CDA8F08BF0A48B
:1002B0002DCC3825F0FDE98FF0A42CCD35F0FCEBEA
:1002C0008EF0A4FEA9F0EB8FF0A4CFC5F02ECD39AF
:0F02D000FEE43CFCEAA42DCE35F0FDE43CFC221C
:1002DF00EB9FF5F0EA9E42F0E99D42F0E89C45F075
:0102EF0022EC
:1006A50002001EE493A3F8E493A34003F68001F24D
:1006B50008DFF48029E493A3F85407240CC8C33356
:1006C500C4540F4420C8834004F456800146F6DF25
:1006D500E4800B0102040810204080900985E47E27
:1006E500019360BCA3FF543F30E509541FFEE4931A
:1006F500A360010ECF54C025E060A840B8E493A3E1
:10070500FAE493A3F8E493A3C8C582C8CAC583CA0B
:10071500F0A3C8C582C8CAC583CADFE9DEE780BEC3
:0109BE000038
:00000001FF
